:1000000060C500007BC5000079C500000C948927FD
:1000100075C5000073C5000071C500006FC5000004
:100020006DC500006BC500000C94EF160C94AB1668
:100030000C94132163C5000061C500005FC500007A
:100040005DC500005BC5000059C5000057C5000034
:1000500055C500000C94D71751C500004FC50000CE
:100060004DC500004BC5000049C5000047C5000054
:1000700045C5000043C5000041C500003FC5000064
:100080003DC500003BC5000039C5000037C5000074
:1000900035C5000033C5000031C500002FC5000084
:1000A0002DC500002BC5000029C500002020202000
:1000B0006162636465666768696A6B6C6D6E6F70B8
:1000C0007172737475767778797A31323334353664
:1000D00037383930524542545F2D3D5B5D5C233BE0
:1000E00027602C2E2F2020202B0014001A0009003E
:1000F00013000500E00004001500160017000A00B8
:10010000E1001D001B0006000700190000000000B0
:100110000000E300235228412A0033001C0018008D
:100120000F000D00340012000C0008001100100038
:1001300029003800370036000B000E0000000000D8
:100140000000E60024522C422B0014001A00080084
:1001500015001700E00004001600070009000A005F
:10016000E1001D001B000600190005000000000052
:100170000000E300235228412A00130012000C0063
:1001800018001C00340033000F000E000D000B009F
:100190002900380037003600100011000000000070
:1001A0000000E60024522C422B001E001F002000FD
:1001B00021002200E000000000000000000000001C
:1001C000E10000000000000000000000000000004E
:1001D00000000100010001002A0027002600250080
:1001E00024002300000000004F0052005100500086
:1001F00029000000000000000000000000000000D6
:1002000000000100010001002B001E021F0220025D
:1002100021022202E00000000000000000000000B7
:10022000E1000000000000000000000000000000ED
:1002300000000100010001002A0027022602250219
:10024000240223023500310030002F002E002D0043
:100250003502310230022F022E022D020000000072
:100260000000010001000100007C0000000000000F
:100270000000000042784578477849780000000087
:100280004378467848784A78000000000000000073
:10029000000001000100010000000000000000005B
:1002A0000000000000000000000041524052000029
:1002B000000000000000000000000000000000003E
:1002C000000001000100010000DA0281FFD9F1DB2A
:1002D00020A4A62EAF00A0C0D30000A1C8D3000068
:1002E000AED580A81F408D142000556E6465660051
:1002F00041646A757374005261697365004C6F776D
:1003000065720044656661756C74004C6179657254
:100310003A20003A002C206B007800808182838490
:1003200085868788898A8B8C8D8E8F909192939405
:10033000A0A1A2A3A4A5A6A7A8A9AAABACADAEAF45
:10034000B0B1B2B3B4C0C1C2C3C4C5C6C7C8C9CABC
:10035000CBCCCDCECFD0D1D2D3D40000010101017E
:100360000101010101020202020202020202030370
:100370000303030303030404040404040405050540
:100380000505060606060607070707070808080802
:10039000090909090A0A0A0B0B0B0C0C0C0D0D0DAF
:1003A0000E0E0E0F0F0F1010111111121213131445
:1003B00014151516161717181819191A1A1B1B1CBD
:1003C0001D1D1E1E1F202021222223242425262617
:1003D000272829292A2B2C2D2D2E2F30313232334C
:1003E0003435363738393A3B3C3D3E3F4041424355
:1003F0004445464748494A4C4D4E4F505153545539
:100400005658595A5B5D5E5F616264656668696BE8
:100410006C6D6F7072737577787A7B7D7E80828366
:100420008587888A8C8E8F91939596989A9C9EA0AA
:10043000A2A3A5A7A9ABADAFB1B3B5B7BABCBEC0B7
:10044000C2C4C6C9CBCDCFD1D4D6D8DBDDDFE2E480
:10045000E7E9EBEEF0F3F5F8FAFDFF00AF00AE05CB
:10046000010980A101850319012AB700150126B7EA
:1004700000950175108100C0050C0901A1018504DA
:1004800019012AA002150126A0029501751081000C
:10049000C005010906A1018506050719E029E71530
:1004A0000025019508750181020507190029EF153E
:1004B00000250195F07501810205081901290595AE
:1004C0000575019102950175039101C005010906A9
:1004D000A101050719E029E7150025019508750117
:1004E00081029501750881010507190029FF150092
:1004F00026FF0095067508810005081901290515D4
:10050000002501950575019102950175039101C0C2
:1005100009023B00020100A0FA09040000010301E6
:10052000010009211101000122440007058103088F
:10053000000109040100010300000009211101006C
:1005400001226D0007058203200001120100020054
:10055000000008534601000100010200010C0343A2
:10056000006F0072006E0065000000100366006FEF
:10057000006F007300740061006E00000004030946
:10058000040000000000003E5B4F5B3E003E6B4FEE
:100590006B3E001C3E7C3E1C00183C7E3C18001C40
:1005A000577D571C001C5E7F5E1C0000183C180025
:1005B00000FFE7C3E7FF00001824180000FFE7DB97
:1005C000E7FF0030483A060E002629792926004028
:1005D0007F05050700407F05253F005A3CE73C5A50
:1005E000007F3E1C1C0800081C1C3E7F0014227F5C
:1005F0002214005F5F005F5F0006097F017F00003B
:100600006689956A0060606060600094A2FFA294B1
:100610000008047E04080010207E20100008082A2C
:100620001C0800081C2A0808001E10101010000CDE
:100630001E0C1E0C0030383E383000060E3E0E06F2
:100640000000000000000000005F00000000070044
:10065000070000147F147F1400242A7F2A1200232D
:100660001308646200364956205000000807030052
:1006700000001C224100000041221C00002A1C7FB7
:100680001C2A0008083E080800008070300000089E
:10069000080808080000006060000020100804023C
:1006A000003E5149453E0000427F400000724949EA
:1006B0004946002141494D33001814127F1000278C
:1006C00045454539003C4A49493100412111090756
:1006D00000364949493600464949291E00000014A0
:1006E0000000000040340000000008142241001403
:1006F00014141414000041221408000201590906C0
:10070000003E415D594E007C1211127C007F494928
:100710004936003E41414122007F4141413E007F38
:1007200049494941007F09090901003E414151738E
:10073000007F0808087F0000417F41000020404101
:100740003F01007F08142241007F40404040007F6D
:10075000021C027F007F0408107F003E4141413EA1
:10076000007F09090906003E4151215E007F0919F9
:1007700029460026494949320003017F0103003F11
:100780004040403F001F2040201F003F4038403F76
:1007900000631408146300030478040300615949DA
:1007A0004D4300007F414141000204081020000039
:1007B0004141417F000402010204004040404040AA
:1007C000000003070800002054547840007F2844AC
:1007D000443800384444442800384444287F0038D2
:1007E000545454180000087E0902001824241C7870
:1007F000007F080404780000447D40000020404051
:100800003D00007F102844000000417F4000007C34
:1008100004780478007C08040478003844444438A0
:10082000007C1824241800182424187C007C080458
:1008300004080048545454240004043F4424003C59
:100840004040207C001C2040201C003C4030403CAC
:10085000004428102844004C9090907C004464543C
:100860004C44000008364100000000770000000002
:1008700041360800000201020402003C2623263C07
:100880000000000000000000000000000000000068
:1008900000C0E0F0F8F81800C0F0FCFEFFFFFFFF1A
:1008A000FFFFFF7E00000000000000000080C0E0AD
:1008B000E0E0E0E0E0E0E0C0800000000080C0E0B8
:1008C000E0E0E0E0E0E0E0C080000000E0E0C0C088
:1008D000E0E0E0E00000E0E0C0C0E0E0E0E0E0C038
:1008E000800000000080C0E0E0E0E0E0E0E0E0C088
:1008F000800000000000000000000000000000E098
:10090000F0F0F0E0ECEEF7F37020007C7C7C7E00F1
:100910007E7E7E7F7F7F000080C0E07E5B4F5BFE3F
:10092000C00000C000DCD7DEDEDED7DC00C0000087
:1009300000000000000000000000000000000000B7
:1009400000000000000000000000F8FCFEFFE000D6
:10095000FFFFFFFFFFFF80FFFFFFFFFFFFFFFFFF26
:100960001F0701000000000000000000FFFFFF81E2
:1009700000000000000081C3C3C30000FFFFFF812F
:1009800000000000000081FFFFFF0000FFFFFF01EB
:10099000000000000000FFFFFF010000000001FF59
:1009A000FFFF0000FFFFFF9D1C1C1C1C1C1C9DDF8B
:1009B000DFDF000000000000000000000000000F6A
:1009C0001F3F7F7F7F7F7F3F1E0C001F1F1F3F0049
:1009D0003F3F3F7F7F7F00307B7F78302020307823
:1009E0007F3B0003000F7F0F0F0F7F0F00030000FE
:1009F00000000000000000000000000000000000F7
:100A000000000000000000000000030F1F3F3F3FF8
:100A10003F1F1F3F3F7F7F7F3F3F1F3F7F7F7F7F86
:100A20007C7878381C0F00000000000000010307EC
:100A30000707070707070703010000000001030776
:100A4000070707070707070301000000070707005C
:100A5000000000000000070707000000000000077A
:100A60000707000000010307070707070707070339
:100A70000100000000000000000000000000000075
:100A80000000000000000000000000000000000066
:100A90000000000000000000000000000000000056
:100AA0000000000000000000000000000000000046
:100AB0000000000000000000000000000000000036
:100AC000000011241FBECFEFDAE0DEBFCDBF12E081
:100AD000A0E0B1E0E2EAF3E502C005900D92A8378C
:100AE000B107D9F726E0A8E7B2E001C01D92A73A06
:100AF000B207E1F70E943A210C94822981CA8091C1
:100B00009B04816080939B0408959091930493705B
:100B100051F08093940460939504493708F048E7B6
:100B200040939604ECCF0895982FE0918F04409164
:100B3000560457E0E41302C080E008952E2F30E001
:100B40005E9FF0011124E95AFB4F8181681306C0B2
:100B50008081981303C085818111EFCFF90131960F
:100B6000E770E8CFFC01AC014C5F5F4F8FEF91E382
:100B70002191822728E030E087FF09C0880F89276C
:100B800021503109C9F7E417F50791F70895880F47
:100B9000F7CFE8EDF0E080818E7F80831092E20055
:100BA0001092DA001092E100A0EEB0E08C9181602A
:100BB0008C9380818F77808319BCA7EDB0E08C91F6
:100BC0008E7F8C9380818F7E808310924104089564
:100BD0002091E4003091E50095E6A9012091EC0018
:100BE000822F817020FF06C08091E80080FF06C040
:100BF00080E008952091E80022FD1AC080914C0405
:100C0000882389F0853089F08091EB0085FD0FC045
:100C10002091E4003091E50042175307F9F291501A
:100C2000E1F684E0089582E0089583E0089581E08C
:100C3000089580914E0487FF13C08091E80082FFE1
:100C400006C08091E8008B778093E80004C0809113
:100C50004C048111F2CF089580914C048823D9F37C
:100C60008091E80080FFF8CF8091E8008E77ECCF8C
:100C7000982F9093E900242F762F50E0891731F0B8
:100C80007091EC002091ED005091F00021FD07C023
:100C90009F5F973071F78093E90081E0089530916C
:100CA000EB003E7F3093EB003091ED003D7F3093C1
:100CB000ED003091EB0031603093EB007093EC006D
:100CC0002093ED005093F0002091EE0027FDE0CF3F
:100CD00080E00895B0E0A0E0E0E7F6E00C94B828EA
:100CE000C8EDD0E088818F7E8883E7EDF0E08081D9
:100CF0008160808384E082BF81E0809341048881A9
:100D00008E7F888302EE10E0F80110821092DA00E4
:100D100081EEC82ED12CF601108288818F778883CE
:100D200088818068888388818F7D888319BC109230
:100D30004C0410924D0410924B0410924A0490EE11
:100D4000E92EF12CF70180818B7F8083888181607F
:100D5000888342E060E080E08BDFF60180818E7F57
:100D60008083F801808181608083808188608083B6
:100D7000F70180818E7F8083888180618883CDB7F1
:100D8000DEB7E8E00C94D428FC01CB012091540498
:100D9000309155042617370790F0009729F42091D9
:100DA000E8002E772093E80040E0009751F44111CD
:100DB00008C08091E80082FF31C080E00895C90139
:100DC000F3CF20914C042223A9F12530A9F12091E1
:100DD000E80023FD2DC02091E80022FDEACF2091FC
:100DE000E80020FFE2CF3091F3002091F20000975D
:100DF00019F02830310558F041E02830310509F06C
:100E000040E02091E8002E772093E800CECF41917A
:100E10004093F10001972F5F3F4FE9CF80914C0441
:100E2000882341F0853041F08091E80083FFC1CFF5
:100E300081E0089582E0089583E00895089587E7AA
:100E400097E7909301088093000888E19AE00FB635
:100E5000F894A895809360000FBE90936000FFCF38
:100E6000A4E0B0E0E6E3F7E00C94BE288FB7F89476
:100E700020913D0430913E0440913F045091400444
:100E800029833A834B835C838FBF69817A818B810D
:100E90009C812496E2E00C94DA2880914301089525
:100EA000909144019130E1F490913A0497FF18C079
:100EB000E82FE695E695E695803FF0F4F0E0EE57F2
:100EC000FD4F877021E030E0A90102C0440F551F9B
:100ED0008A95E2F7CA0180959281892382830895D9
:100EE000ECE7F2E09191891303C0DF0111971C92A6
:100EF00052E0E238F507B1F708959091440191303E
:100F0000C1F490913A0497FF14C0E82FE695E69556
:100F1000E695803FF8F4F0E0EE57FD4F877021E052
:100F200030E001C0220F8A95EAF78281822B82830A
:100F30000895ACE7B2E0EFEF90E02D91821751F009
:100F4000EF3F19F4211101C0E92F9F5F9630A9F7F7
:100F5000EF3F09F408950E2E000CFF0BE658FD4FED
:100F6000E6CFA3E0B0E0E7EBF7E00C94BE289C01ED
:100F7000809138049091390482179307B1F030932F
:100F8000390420933804E0913604F0913704309707
:100F900061F00084F185E02D309739F084E0898399
:100FA0003B832A83CE01019609952396E2E00C94B7
:100FB000DA28A3E0B0E0EFEDF7E00C94BE289C0146
:100FC000809134049091350482179307B1F03093E7
:100FD000350420933404E0913604F09137043097BF
:100FE00061F00084F185E02D309739F083E089834A
:100FF0003B832A83CE01019609952396E2E00C9467
:10100000DA2880913204882369F0E0913604F09167
:101010003704309739F00190F081E02D309711F0CE
:101020000995089580E00895FC01EE0FFF1FE80F79
:10103000F91FE057FC4F6183408322830895539A40
:101040000895E0919804EF3F89F0E53069F0E230CF
:1010500019F0E1110DC0E3E0E150F0E0EC58FD4F74
:101060008081809398044BCDE1E0F6CFE3E0F5CFAB
:10107000E0E0F3CFE0919804EF3F61F0E53061F0FC
:10108000E23061F4EF5FF0E0EC58FD4F8081809337
:10109000980435CDE0E0F6CFE1E0F4CFE0E0F3CF27
:1010A000E3E9F4E0248130E1231B08F420E0248309
:1010B00026CDE3E9F4E0248130E1230F08F42FEF9B
:1010C00024831DCDE3E9F4E0438120E1421B08F4D1
:1010D00040E08181628190E018CDE3E9F4E0438152
:1010E00020E1420F08F44FEF8181628190E00DCD45
:1010F000E3E9F4E0628120E1621B08F460E08181B1
:10110000438190E002CDE3E9F4E0628120E1620FE7
:1011100008F46FEF8181438190E0F7CCE3E9F4E0DC
:101120008181438162818850990BEFCCE3E9F4E03F
:10113000818190E0438162810896E7CC809193049D
:10114000837031F084608093930410924101D7CC76
:10115000089580919304837031F0846080939304A8
:1011600010924101CCCC0895E3E9F4E0808191E054
:101170008927808310924101C2CC9BE0899F802DFA
:101180001124980F973308F096E32091330422231B
:1011900021F09C3128F09BE108958B3108F48BE11C
:1011A000089530913304332321F08B3191052CF0D5
:1011B00008958B31910514F04B9736CF0895FF9227
:1011C0000F931F93CF93DF93182F062FF42ED0E0A9
:1011D000C0E02F2D402F612FCE01E3DF2196C633D3
:1011E000D105B9F7CDB7DEB7E5E00C94D72880E09C
:1011F0000895F894E82FE295EF70F0E041A18F7028
:1012000021E030E0B90102C0660F771F8A95E2F74E
:10121000CB01962F9095942391A392A1892B82A321
:1012200078940895A4E0B0E0E8E1F9E00C94BE28D9
:1012300080913204882369F013DE69837A838B837B
:101240009C8369817A818B819C812496E2E00C9455
:10125000DA2806DE69837A838B839C838091260358
:1012600090912703A0912803B091290329813A8105
:101270004B815C81280F391F4A1F5B1F29833A83EA
:101280004B835C83DECF90913A0492FF10C041E023
:10129000282F2471243009F040E031E0282F2871F4
:1012A000283009F030E0431711F02CE0822793FF3B
:1012B00010C041E0282F2471243109F040E031E0D2
:1012C000282F2871283109F030E0431711F02CE065
:1012D000822730913B0430FF10C051E0282F21714C
:1012E000213009F050E041E0282F2871283009F022
:1012F00040E0541711F029E0822731FF10C041E08F
:10130000282F2171213109F040E031E0282F287188
:10131000283109F030E0431711F029E0822794FFCB
:1013200002C083FD877E0895803E9105C1F1C8F417
:101330008133910509F47DC048F48932910509F49F
:101340006DC08A32910509F47BC0089589339105F7
:10135000D1F082389105B9F08533910509F459C06F
:101360000895843E9105C1F138F4823E910521F142
:10137000833E910531F10895863E9105C1F1873E86
:101380009105E1F1089520913A04237009F065C0B8
:1013900020913B0423FF14C089E290E0089520913E
:1013A0003A0420FD43C030913B0430FF09C024FFC4
:1013B0004EC090E080E0089520913A0422FDF7CFDE
:1013C000089520913A0422FD45C030913B0430FD40
:1013D00044C024FFF5CFEDCF20913B0421FFF0CF97
:1013E00080913A0484FDE5CF87EE90E00895209146
:1013F0003A0423FFE5CF24FDDCCFF6CF20913A0459
:1014000023FD2EC030913B0431FFE3CF84EE90E00A
:10141000089520913A0425FFD3CFBECF20913A04FE
:1014200025FD21C020913B0423FFCACF89E390E032
:10143000C7CF20913A0426FFC3CF8AE290E00895F7
:1014400020913A0426FFBCCF81E390E0089583EE1B
:1014500090E0089582EE90E0089580EE90E0089587
:1014600086EE90E0089585E390E008957830B8F432
:101470006630A8F48530B0F4E62FF0E096E0799F6E
:10148000E00DF11D112490E3899FE00DF11D112461
:10149000EE0FFF1FE851FF4F85919491089580E072
:1014A00090E0089581E0FCCF1F93CF93DF933CDF62
:1014B000EC018115924508F05CC0C11580E5D807A4
:1014C00008F0D9C0C03ED10538F5CD3CD10508F0B3
:1014D000ABC0C83AD10580F4C53AD10508F0A1C027
:1014E000C130D10509F440C0CE010497813A91057D
:1014F000D8F1D0E0C0E038C0CE01885A91094B97AE
:10150000C0F7C85AD0E0CC0FDD1FC75BDE4F099093
:10151000D881C02DD46428C0C11590E4D907E0F467
:10152000C11520E2D20708F0C0C0C83ED105E0F0E6
:10153000CE019A9581159F41E0F68D2FA4DE182FDC
:10154000CE019927F1DEC12FD0E0DC2FCC27CC27AC
:10155000DF71C82BD92B08C0CE019927E5DECC2737
:10156000DF70C82BD92BD06ACE01DF91CF911F91AC
:101570000895C03882E5D807B8F5C03692E5D90796
:1015800008F05BC0C03422E5D207C8F4C03282E55F
:10159000D80708F04BC02C2F2695269590E2299F5E
:1015A000900111248C2F8370C1E0D0E002C0CC0FD9
:1015B000DD1F8A95E2F7C22BD32BDD68D5CF2C2F08
:1015C00026952695277080E2289F900111248C2F64
:1015D0008370C1E0D0E002C0CC0FDD1F8A95E2F736
:1015E000C22BD32BDC68C0CFC03C92E5D90760F496
:1015F0008C2F8F71C03AD245A8F5C82FD0E0DC2FD0
:10160000CC27C46FD06AB0CFCE01805C9245809762
:1016100008F06FCFDC2FCC27CC27DF71C06FD06AEA
:10162000A3CFA497D064A0CFD0659ECFCF71D0E0D8
:10163000DC2FCC27C16FD06A97CF2C2F269526950B
:10164000277080E2289F900111248C2F8370C1E0C5
:10165000D0E002C0CC0FDD1F8A95E2F7C22BD32B5E
:10166000DA6882CF10DEC82FD0E0DC2FCC27CC2761
:10167000DF71D06279CF8C2F8F7105DE55E0D69562
:10168000C7955A95E1F7CF70D0E0DC2FCC27282FF3
:1016900030E084FF06C044E0220F331F4A95E1F793
:1016A0003327C22BD32BD0695FCF8D2F8F71EBDD0A
:1016B000182FCE01992738DEC12FD0E0DC2FCC27A0
:1016C000CC27DF71C82BD92BD4CF982F9095809140
:1016D000EE0289238093EE0208958091EE029091AC
:1016E000C502892B9091C402992391F0892B909186
:1016F0004401913071F490913A0497FF0AC09EE141
:1017000024E832E040E0915040F441111092C402CC
:10171000089596E02CE732E0F5CFF90151919F0151
:10172000552389F34F5FEFCF80918F04909156043A
:10173000981301C008958F5F8770FACFB0E0A0E0E2
:10174000E4EAFBE00C94B7288C01E0908303F0906E
:1017500084038091810390918203E82AF92ACFE0E3
:10176000D0E0CC24C394D12CBC2EC6010C2E02C0D8
:10177000880F991F0A94E2F78E219F21892B49F443
:10178000219790F7B12C8B2DCDB7DEB7E9E00C9403
:10179000D328B8018C2F6ADE87DE019789F3F3CF57
:1017A000CF93DF93D82FC92FC9DF6D2F7C2F5EDE3B
:1017B0007BDEDF91CF910895983078F5863068F51B
:1017C000E82FF0E086E0989FE00DF11D11249E2F98
:1017D000977083E0F695E7958A95E1F7EE0FFF1F86
:1017E000EE0FFF1FEC55FD4F50E040E080E02191EF
:1017F00030E0092E02C0369527950A94E2F7217051
:101800003327042E01C0220F0A94EAF7822B4F5F80
:101810005F4F4430510559F7089580E0089598309E
:1018200098F5863088F5E82FF0E086E0989FE00D87
:10183000F11D11248E2F877041E001C0440F8A955D
:10184000EAF783E0F695E7958A95E1F7EE0FFF1F3B
:10185000EE0FFF1FEC55FD4F30E020E070E051919E
:10186000DF011197CB01022E02C0969587950A944D
:10187000E2F7817081958527842385278C932F5FDC
:101880003F4F2430310559F7089590938403809396
:101890008303089521E030E002C0220F331F8A95B0
:1018A000E2F7209530958091830390918403822301
:1018B0009323EBCF9091C302809589238093C30239
:1018C000282F277061F4891751F090913B0492FF03
:1018D00006C0869586958695DDDF1092C302089531
:1018E00021E030E002C0220F331F8A95E2F7809199
:1018F000830390918403822B932BC7CF9093820311
:10190000809381030895FC018481882399F080816C
:10191000918146DF282F92959F70963091F060F468
:10192000925F9F70923030F481E0203F81F030F47C
:10193000283E30F080E004C09A5FF3CF243FD1F717
:10194000089581E0283E20F0213FA1F7F9CF0895C6
:1019500008959C01892F99270097E9F09C0188E060
:10196000A90174E0569547957A95E1F7411551051F
:1019700011F08C5F9A01A9015695479556954795A8
:101980004115510511F08E5F9A0136952795232B4D
:1019900009F08F5F089580E0E3CFA6E0B0E0E3EDCB
:1019A000FCE00C94BD289C0186E0F901DE01119653
:1019B00001900D928A95E1F7F901258189819A813B
:1019C000222381F0662371F0B9DE182F682F8981F8
:1019D0009A8125DF69817A81812F48DD2696E3E0AF
:1019E0000C94D928E9DE182FF5CFCF93DF93682F19
:1019F00081E06A3019F06D3029F480E082D0DF9107
:101A0000CF9108958091A5069091A60626E0FC014D
:101A1000AFE9B6E001900D922A95E1F7603E08F437
:101A200058C026E0FC0111922A95E9F7C091A5065D
:101A3000D091A60646E050E0BE018FE996E00E94F4
:101A400022299E012F593440892B41F1C90145E0DB
:101A5000969587954A95E1F741E050E0BA0102C0BA
:101A6000660F771F8A95E2F7CB0160919D04709114
:101A70009E04862B972BB9016B5F7F4FE5E076952F
:101A80006795EA95E1F702C0440F551F6A95E2F7A2
:101A9000842B952B90939E0480939D042A5F3F4F47
:101AA00040919C04642F70E0C9010E949A28481B51
:101AB000463010F4240F311D211572E0370710F065
:101AC00030E020E021563B4F3093A6062093A50638
:101AD00096CFF6E06F9FB00111246F577A4F46E022
:101AE00050E00E941929A2CFCF93DF93EC01FE01B1
:101AF0008491811103C0DF91CF91089576DF219603
:101B0000F6CFCF93382FE091A506F091A606EF59B6
:101B1000F44020919C04622F70E0CF010E949A282B
:101B2000281B822F332359F066E00E94E528C82F36
:101B3000C15010F4CF91089580E257DFF9CF9F0193
:101B4000280F311D2115324018F080E0F0E0E0E070
:101B50008E0F9F2F911D81569B4F9093A6068093C9
:101B6000A506E8CFC1DF81E0CCCF80914401813070
:101B700061F580913A0487FF28C0AFDD809383022E
:101B800040E250E066EC72E082E892E00E94222996
:101B9000892BD1F080E2E2E8F2E0A6ECB2E001901D
:101BA0000D928A95E1F7E0913604F0913704309771
:101BB00059F00480F581E02D309731F086E0809374
:101BC000820282E892E00995089587DD80937A0287
:101BD00048E050E066EE72E08AE792E00E94222937
:101BE000892B91F388E0EAE7F2E0A6EEB2E00190FB
:101BF0000D928A95E1F7E0913604F0913704309721
:101C000019F30280F381E02D3097F1F28AE792E038
:101C1000DACF1092EE02809144018130A1F48091DC
:101C20003A0487FF10C0E4E8F2E08EE1DF011D9284
:101C30008A95E9F790E080E0BCD990E080E091D906
:101C40001092C50292CFECE7F2E086E0EFCFAAE275
:101C5000B0E0EDE2FEE00C94BD288EE494E0FC01DF
:101C600001962091F100208324E086359207B9F790
:101C700080914F04893009F458C0C8F4823009F4C7
:101C8000B4C0833009F483C0813089F18091E800C9
:101C900083FF85C280914E0490914F049A3008F0E2
:101CA0007EC2E92FF0E0EC57F64D0C9413298A30F0
:101CB00009F48AC08B3051F780914E04813231F79C
:101CC0008091520490915304892B01F78091E80090
:101CD000877F8093E8000E94190681E0909150046C
:101CE000911101C080E08093440193DFCFCF8091B8
:101CF0004E04813A59F68091E800877F8093E8008E
:101D00008091520490915304892B59F468E082E445
:101D100094E070E039D88091E8008B778093E800F8
:101D2000B5CF60E090E080E0F4CF80914E04813246
:101D300009F0ACCF8091520490915304029708F0BF
:101D4000A5CF8091E800877F8093E8008091E8002C
:101D500082FF18C09091F3008091F200029731F455
:101D60008091F100813011F0863021F48091F100F2
:101D7000809343018091E8008B778093E8000E9474
:101D8000190684CF80914C048111E0CF7FCF8091E0
:101D90004E04813A09F07ACF809152049091530415
:101DA000892B09F073CF8091E800877F8093E8004A
:101DB0008091E80080FFFCCF809144018093F10086
:101DC0008091E8008E77D9CF80914E04813209F05E
:101DD0005DCF8091E800877F8093E8000E9419061C
:101DE000809151048093420151CF80914E04813AF9
:101DF00009F04CCF8091E800877F8093E8008091C4
:101E0000E80080FFFCCF80914201D8CF803899F064
:101E1000823809F0C4C1809152048F70873008F075
:101E2000BEC18093E9008091EB0085FB882780F993
:101E30001092E90006C080914A0490914B049111E0
:101E400082609091E800977F9093E8008093F10082
:101E50001092F1008091E8008E779DC1882309F4EB
:101E60008BC1823009F09BC18091500481118EC1D9
:101E7000809152048F702FEF280F263008F08FC109
:101E80008093E9002091EB0020FF80C1933031F472
:101E90008091EB0080628093EB0078C19091EB0021
:101EA00090619093EB0021E030E001C0220F8A9511
:101EB000EAF72093EA001092EA008091EB00886034
:101EC000EACF81116CC1109150041F778091E3001B
:101ED0008078812B8093E3008091E800877F809356
:101EE000E8000E9419068091E80080FFFCCF8091F5
:101EF000E30080688093E30082E0111183E0809327
:101F00004C044DC18058823008F049C140915004C2
:101F1000509151044C3D83E05807A1F583E08A833A
:101F20008AE289834FB7F894DE01139620E03EE001
:101F300051E2E32FF0E050935700E49120FF03C0FB
:101F4000E295EF703F5FEF708E2F90E0EA30C0F0C7
:101F5000C7968D939D932F5F243159F74FBF809182
:101F6000E800877F8093E8006AE270E0CE01019686
:101F70000E94C4068091E8008B778093E8000FC12F
:101F8000C096E7CF2091520430915304852F9927B2
:101F90008330910509F160F48130910509F472C034
:101FA000029709F0FCC08BE390E0E0E1F5E029C086
:101FB0008132910509F45AC0829709F0F0C02115C9
:101FC000310509F469C02130310509F0E8C08DE61A
:101FD00090E0EFE5F4E015C0CA0199274130B1F176
:101FE0008230910509F43AC0892B09F0D8C0EDE799
:101FF000F5E0E4918E2F90E0EDE7F5E0009709F42D
:10200000CEC02091E800277F2093E800209154045F
:10201000309155048217930708F49C0140E0211584
:10202000310509F03EC041113CC08091E80082FDBD
:10203000A1CF80914C04882309F49CCF853009F40A
:1020400099CF8091E80083FFF0CF94CFEBE6F5E0E5
:10205000E4918E2F90E0EBE6F5E0D0CFEDE5F5E0F2
:10206000E4918E2F90E0EDE5F5E0C8CF2115310524
:1020700071F02130310509F092C089E090E0EBE386
:10208000F5E0BFCF82E190E0EBE4F5E0BACF89E084
:1020900090E0E2E2F5E0B5CF84E490E0ECECF4E02F
:1020A000B0CF80914C04882309F464CF853009F4C3
:1020B00061CF8091E80083FD5DCF8091E80082FDD3
:1020C000B4CF8091E80080FFAACF9091F300809177
:1020D000F2002115310519F08830910550F041E0EA
:1020E000089709F040E08091E8008E778093E8003F
:1020F00096CF44914093F1003196215031090196D9
:10210000E8CF803809F04BC08091E800877F80934A
:10211000E80080914D048093F1009CCE81113FC076
:10212000109150041230D8F58091E800877F809399
:10213000E80010934D040E941906112311F084E069
:1021400005C08091E30087FDFACF81E080934C04C5
:1021500042E061EC81E00E94380642E261EC82E0FC
:102160000E94380680914C04843021F081E08093F5
:10217000450115C082E0FBCF80915004813079F495
:1021800081E0933009F080E080934B041092E900E5
:102190008091E800877F8093E8000E941906809173
:1021A000E80083FF0AC08091E800877F8093E80001
:1021B0008091EB0080628093EB00AA96E3E00C94A0
:1021C000D92827DD88E19AE00FB6F894A895809386
:1021D00060000FBE90936000FFCF882311F075DA86
:1021E000C4CC0895882331F09091EE02892B80931E
:1021F000EE02BBCC0895882319F19CEF980F913A19
:1022000018F40E945007B1CC90E2980F983048F42F
:10221000877091E001C0990F8A95EAF7892F55DA06
:10222000F2CF9BE5980F933020F490E080E00C947F
:10223000D907885A8B3120F490E080E00C94B107E4
:102240000895CF93C82F8823A9F18CEF8C0F813A82
:1022500098F5809144018130F9F480913A0487FF28
:102260001BC0EC2FE695E695E695F0E0EE57FD4FA6
:10227000828190E04C2F477021E030E002C0220FB5
:10228000331F4A95E2F782239323892B79F08C2F11
:102290000E9450076ADC0AC0ECE7F2E082E892E0B4
:1022A0002191C217A1F38E179F07D1F78C2F0E949F
:1022B0007D075BDCCF91089580E28C0F883068F455
:1022C000C77021E030E001C0220FCA95EAF7809183
:1022D000EE02822B8093EE02ECCF8BE58C0F8330E5
:1022E00038F42C2F2452330BC9010E94D907E2CFB6
:1022F000C85ACB31F8F6EC2FF0E0EE0FFF1FE75B8A
:10230000FE4F808191810E94B107D4CF0F931F931C
:10231000CF93DF938B01EA0190914C04943061F5E7
:102320008093E9008FEF9091E800815095FD06C001
:1023300095ED9A95F1F700008111F5CF8091E800B5
:1023400085FF1AC00E94E805811111C08091E80044
:1023500085FD06C08091E8008E778093E800F2CF7B
:10236000F80181918F018093F100219779F7809195
:10237000E8008E778093E800DF91CF911F910F9155
:102380000895BC0143E050E082E0C0CFBC0140E2D0
:1023900050E082E0BBCFCF93DF93D82FC92F48E026
:1023A00050E0682F792F81E0B1DF88E0ED2FFC2F1E
:1023B000A2E4B4E001900D928A95E1F7DF91CF910C
:1023C00008953BB1377F2BB128604FB7F89480E96F
:1023D00093E0FC010196508168E02BB9000000C039
:1023E00057FF3BB9550F000000C000C000C03BB90B
:1023F00000C06A9591F754E08233950751F74FBFBB
:102400008FE594E00197F1F700C000000895B0E077
:10241000A0E0EDE0F2E10C94B628F82EE92ED62EDD
:10242000C72E8A0180912503AA24A394B12C8A3057
:1024300018F48AE0A82EB12CC1E0D0E06D2D7C2DDF
:102440008F2D9E2DF8010995811104C02196AC169F
:10245000BD062CF4CDB7DEB7EAE00C94D228CC9FB1
:102460009001CD9F300D300D112490E080E045E3C8
:102470004A95F1F70000019682179307C1F7DECF66
:10248000AB0124E630E0BC0188E70E945F269C0196
:1024900081E0232B09F080E0089580918E039091D4
:1024A0008F03911103C091E089270895882361F07B
:1024B00062E070E08DE594E0E3DF811103C080917C
:1024C0008E03089510928E0380918E03ECCFA5E0C9
:1024D000B0E0EDE6F2E10C94BE2880918E038D838E
:1024E00080918F038823E9F00E943007DC01CB0143
:1024F000805A9541AF4FBF4F80938A0390938B03CF
:10250000A0938C03B0938D038D81811107C062E08D
:1025100070E08BE594E0B4DF811108C080918E03F8
:102520008D838D812596E2E00C94DA2881E08093FA
:102530008E03F4CFA5E0B0E0E0EAF2E10C94B42819
:102540000E94120960937D0370937E0380937F0342
:10255000909380031091890320914101223009F466
:10256000CAC1D0F421111FC010923E0160938503AF
:1025700070938603809387039093880390919304CC
:10258000892F837019F0892F86958695809389030A
:1025900081E08093410103C0233009F4B5C1259641
:1025A000ECE00C94D02880913D0118132DC090913F
:1025B0009304937020913C0130E081E09217130660
:1025C00009F480E08170809340018091980490919B
:1025D0003F01981739F080933F0140E060E080E0D0
:1025E0000E94DF08113091F01F3F09F4CEC0111195
:1025F00009C080914001882361F140E060E080E003
:102600000E94DF0880E025C081E0DCCF80913E01A0
:102610000E94BD08982EB92E809094044091950494
:10262000E0919604F0E0E55AFC4F411124C024915A
:1026300029832D83022FE92CF12CEB1408F48DC093
:1026400080913304882309F49AC081E09AE19B15B4
:10265000C8F290913E019F5F90933E01811135C178
:1026600082E0809341018091400181112EC11111BE
:10267000B9C083E08ECFE42EF12C54915983A52E5E
:1026800086E0889EF00111242FEF30E0CF01B901E0
:102690000E949A28882D90E0880F991F55E5569F33
:1026A000D001579FB00D11248A1B9B0B882E880CDC
:1026B000880ED901AE19BF09AA9EC001AB9E900D2C
:1026C0001124092F489DA0011124452F5527D90118
:1026D000A41BB50BAA9E6001AB9ED00C1124DD8219
:1026E000D901A819B109AE9DA001AF9D500DBE9DA5
:1026F000500D1124452F5527241B350BA29EA001F8
:10270000A39E500D112463307105C1F0EC3FB3E07E
:10271000FB0768F461307105A9F062307105B1F012
:10272000EF3FF10508F087CF9D83052F84CF6430FC
:10273000710579F066307105B9F37DCF99830D2D60
:10274000AD8279CFD9829D830A2D75CF5D83998320
:10275000FBCF29812D8359836ECFF701E15DFD4FBA
:10276000808190913F01892331F02D81402F698133
:10277000C7010E94D1085FEFE51AF50A5ECF81E03C
:10278000A5E3AB1508F065CF3DCF8091850390910F
:102790008603A0918703B09188032AE0B695A79598
:1027A000979587952A95D1F783709927AA27BB27F4
:1027B00082309105A105B10509F480C083309105EF
:1027C000A105B10509F47DC040E060E00197A105D5
:1027D000B10509F078C064E180E00E94DF0882E082
:1027E0008093410180913E0181500E94BD08F82EE6
:1027F000092F80919304837009F4D1CE2091830333
:10280000309184038091810390918203822B932BDA
:10281000A0D8E82EB4E0B81708F4C1CE1091960401
:10282000E82FF0E0DF01A159BD4F8C91189FC00146
:1028300011242FEF30E0B9010E949A28D62EDF0133
:10284000A659BD4F8C91189FC0011124B9010E9457
:102850009A28C62EEB59FD4F8081189FC001112484
:10286000B9010E949A28B62E8F2D90E09A83898311
:10287000B981B01770F124E0E21291CE5FEF159F9D
:10288000C00111246FEF70E00E949A28698386E2EC
:102890008F1560F1073238F0262F40E060E086E2C5
:1028A00090E00E94D1080C3208F479CE20E040E09C
:1028B00069818BE290E00E94D10871CE44E160E032
:1028C0008BCF44E164E184E188CF112309F467CE22
:1028D00089CF2B2D4C2D6D2D89819A810E94D10895
:1028E000A981BA811196BA83A983C2CF9BE29F15B1
:1028F00008F455CED8CF10933D0180919304837096
:1029000080933C015EDDB5CE80919B04882351F01D
:1029100048E050E067E170E083E994E00E945529C7
:1029200010929B04C0908503D0908603E0908703AB
:10293000F090880380913204882381F00E94300750
:10294000DC01CB018C199D09AE09BF094097A10597
:10295000B10508F424CE1092410121CE0E94120943
:10296000EFCFE3E9F4E085E0808380914601909128
:102970004701A091480181839283A3838FE78483D9
:102980008FEF858348E050E067E170E0CF010E945F
:10299000552910929B04089590913B0492FB2227A5
:1029A00020F9281779F080FB92F990933B0460910D
:1029B0003A0470913B0484E090E00E947E2982E01A
:1029C0000C945A0C0895CF92DF92EF92FF921F93CE
:1029D000CF93DF93CDB7DEB728970FB6F894DEBF5D
:1029E0000FBECDBFC0901D03D0901E03E0901F030B
:1029F000F09020030E943007DC01CB018C199D0967
:102A0000AE09BF0911E084369105A105B10578F141
:102A10000E941209DC01CB010296A11DB11D898320
:102A20009A83AB83BC838091190190911A01895FCD
:102A30009C4F20911801422F50E0253010F044E0C7
:102A400050E0BE016F5F7F4F0E942F2983E090E02E
:102A50000E942A28182F882351F00E943007609383
:102A60001D0370931E0380931F0390932003812FF7
:102A700028960FB6F894DEBF0FBECDBFDF91CF9181
:102A80001F91FF90EF90DF90CF9008958F929F92CB
:102A9000AF92BF92EF92FF921F93CF93DF93CDB788
:102AA000DEB729970FB6F894DEBF0FBECDBF7B010E
:102AB00090E080E00E942A28182F882309F485C01E
:102AC00080910301482F50E0882311F041E050E04D
:102AD0006091040170910501695F7C4FCE010596FC
:102AE0000E942F298090FF0290900003A090010384
:102AF000B09002030E943007DC01CB0188199909CC
:102B0000AA09BB0984369105A105B10540F488E006
:102B100093E00E94B2059D81891709F456C081E0B7
:102B200090E00E942A2881111FC010E08091FB02D2
:102B30009091FC02A091FD02B091FE02F70180830A
:102B40009183A283B383812F29960FB6F894DEBFB9
:102B50000FBECDBFDF91CF911F91FF90EF90BF903F
:102B6000AF909F908F90089580910B01482F50E077
:102B7000853010F044E050E060910C0170910D013F
:102B8000695F7C4FCE0101960E942F2988E093E077
:102B90000E94B2059D818913C8CF0E9430076093BF
:102BA000FF027093000380930103909302038981D5
:102BB0009A81AB81BC818093FB029093FC02A0932D
:102BC000FD02B093FE0211E0B1CF80910803909115
:102BD0000903A0910A03B0910B0389839A83AB8305
:102BE000BC831111E4CFA2CF4F925F926F927F927C
:102BF000AF92BF92CF92DF92EF92FF920F931F930B
:102C0000CF93DF9300D000D000D0CDB7DEB78D8357
:102C10007B01A42EB22E3E836801DB014D905D90B6
:102C20006D907C900E94300769837A838B839C83AC
:102C3000DC01CB0184199509A609B70984369105F1
:102C4000A105B10510F4AA20E9F1BD810B2F0B2ECF
:102C5000000C110B88E0B802F0011124E050FF4F86
:102C600081819281895F9C4F408150E0C416D506D6
:102C700008F4A6016B2D7E810E942F29C8010E94B5
:102C80002A288983882341F00E943007D7016D9359
:102C90007D938D939C931397898126960FB6F89414
:102CA000DEBF0FBECDBFDF91CF911F910F91FF907F
:102CB000EF90DF90CF90BF90AF907F906F905F903C
:102CC0004F900895B1E0B983E7CFA9E0B0E0EBE61B
:102CD000F6E10C94BC2888E0E3E9F4E0DE0111960B
:102CE00001900D928A95E1F7198649E050E064E180
:102CF00073E0CE0101960E94222941E0892B09F45C
:102D000040E009E010E09E012F5F3F4F61E273E079
:102D100084E06ADF2996E4E00C94D8280F931F938F
:102D2000CF93DF93D82FC92F44E050E06CE073E0DD
:102D30000E94222941E0892B09F440E004E010E0E0
:102D40002D2F3C2F63E073E082E04EDFDF91CF91C7
:102D50001F910F9108951F920F920FB60F92112499
:102D60002F933F934F935F936F937F938F939F9393
:102D7000AF93BF93CF93DF93EF93FF93D091E9008D
:102D8000DF708091EC00C82FC17080FDC0E8109208
:102D9000E9008091F000877F8093F00078940E9492
:102DA000270E1092E9008091F00088608093F00077
:102DB000CD2BCF70C093E900FF91EF91DF91CF91C0
:102DC000BF91AF919F918F917F916F915F914F9143
:102DD0003F912F910F900FBE0F901F9018951F924B
:102DE0000F920FB60F9211242F933F934F935F933F
:102DF0006F937F938F939F93AF93BF93EF93FF93C3
:102E00008091E10082FF09C08091E20082FF05C04D
:102E10008091E1008B7F8093E1008091DA0080FF58
:102E200024C08091D80080FF20C08091DA008E7F7E
:102E30008093DA008091D90080FFA9C080E189BD2C
:102E400082E189BD09B400FEFDCF81E080934C048E
:102E500080914104811109C00E94C9050E946A063F
:102E60008091E20084608093E2008091E10080FF25
:102E70001AC08091E20080FF16C08091E2008E7F30
:102E80008093E2008091E20080618093E200809173
:102E9000D80080628093D80019BC85E080934C04F0
:102EA00083E0809345018091E10084FF2FC08091F1
:102EB000E20084FF2BC080E189BD82E189BD09B4B5
:102EC00000FEFDCF8091D8008F7D8093D800809147
:102ED000E1008F7E8093E1008091E2008F7E8093FD
:102EE000E2008091E20081608093E20080914D04D5
:102EF000882309F452C084E080934C0480914C04F0
:102F0000843009F452C081E0809345018091E10052
:102F100083FF2CC08091E20083FF28C08091E100F4
:102F2000877F8093E10082E080934C0410924D04EF
:102F30008091E1008E7F8093E1008091E2008E7F9E
:102F40008093E2008091E20080618093E20042E0A1
:102F500060E080E00E9438068091F00088608093F5
:102F6000F00081E08093450180934401FF91EF914F
:102F7000BF91AF919F918F917F916F915F914F9191
:102F80003F912F910F900FBE0F901F90189519BC75
:102F900010924C041092410468CF8091E30087FDA9
:102FA00002C081E0A9CF83E0A7CF82E0ADCF7894C3
:102FB0001F921FB61F9211248F939F93AF93BF93BD
:102FC00080913D0490913E04A0913F04B091400453
:102FD0000196A11DB11D80933D0490933E04A093E2
:102FE0003F04B0934004BF91AF919F918F911F9088
:102FF0001FBE1F9018952FB7F89480913D049091B3
:103000003E04A0913F04B09140042FBF0895CF9398
:10301000DF93EC01F0DF8C1B9D0BDF91CF910895C6
:10302000EF92FF920F931F93CF93DF93C62FD42F6E
:10303000122FFC018581882399F060939204DBDFD5
:103040009093910480939004C77081E001C0880F31
:10305000CA95EAF7C7D8CDB7DEB7E6E00C94D62814
:103060008091920468132FC0E0909004F090910436
:10307000C2DF8E199F09883C910528F500E20D0FEB
:10308000CD1799F0C770FF24F3948F2D01C0880FDE
:10309000CA95EAF7A2D8083040F48D2F877001C096
:1030A000FF0C8A95EAF78F2D9DD8812FCAD8812FE2
:1030B000A2D8083080F6D77081E001C0880FDA9579
:1030C000EAF78BD8C8CFC77081E001C0880FCA95D6
:1030D000EAF7F7CFB0E0A0E0E0E7F8E10C94B7281A
:1030E0008C01FC018481882309F462C061E0C8017D
:1030F0000E94CD0CEC01F8019581992309F481C45B
:1031000081818093570380818093560380E280936E
:103110003401D0935503C09354039E0130522115BE
:10312000304238F4F8018681807F09F45DC0FE01E9
:103130000AC09E01305421153041C8F4F80186813F
:10314000807FFE0109F0FF27ED33F10528F4E455F7
:10315000FF4FE491E0933401FE01E851FC47E73072
:10316000F10508F041C0E257F64D0C9413299E0179
:103170003A9521153F41D8F29E01205A324520321E
:10318000310550F3FE01E0CF26E241EE61EEC801C9
:1031900047DF8091C302877059F0F8018581882349
:1031A00039F080913B0482FF03C082E00E945A0CF8
:1031B000CDB7DEB7E9E00C94D32827E245EE65EE03
:1031C000E6CF26E241EE60EEE2CF27E245EE64EE86
:1031D000DECF26E241EE62EEDACF27E245EE66EE82
:1031E000D6CF28E241E0EBCF109292049E013057F7
:1031F0002332310508F019C484E090E00E94502980
:1032000090933B0480933A04FE01E150F047E23290
:10321000F10520F4EB56F64D0C94132980913A04F5
:10322000816080933A0460913A0470913B0484E099
:1032300090E00E947E290E94090EABCF80913B0452
:10324000886080933B04EFCF80913A048260E9CF9D
:1032500080913A048460E5CF80913A048860E1CFA0
:1032600080913B048160EDCF80913B048260E9CF87
:1032700080913A048061D5CF80913A048062D1CFA9
:1032800080913A048064CDCF0E94090E80913A0467
:103290008068C7CF80913A048C60C3CF80913B0493
:1032A0008360CFCF80913A048E7FBBCF80913B0467
:1032B000877FC7CF80913A048D7FB3CF80913A0446
:1032C0008B7FAFCF80913A04877FABCF80913B0457
:1032D0008E7FB7CF80913B048D7FB3CF80913A042E
:1032E0008F7E9FCF80913A048F7D9BCF80913A044F
:1032F0008F7B97CF0E94090E80913A048F7791CFF0
:1033000080913A04837F8DCF80913B048C7F99CF4D
:1033100080913A0482FB992790F921E0922790FB53
:1033200082F990FB83F97DCF80913B04982F909593
:1033300091708E7F892B90FB81F983CF90913A0415
:10334000892F8F7B96FF80646CCF0E94090E90912D
:103350003A04892F97FB87F9805863CF61E08EE0AC
:1033600090E00E9464295FCF60E0F9CF90913A0429
:10337000892F8F7E94FF806154CF90913A04892FDA
:103380008E7F90FF81604DCF90913B04892F877F86
:1033900093FF886056CF85E358C385E343C39923E1
:1033A00069F18272FE01E052F847EB30F10508F056
:1033B00074C0E954F64D0C9413290E94B408E9CE68
:1033C000882309F445C00E949E08E3CE882309F4AF
:1033D00045C00E948E08DDCE882309F445C00E94B6
:1033E0007808D7CE882309F445C00E946208D1CE60
:1033F000882309F445C00E945008CBCE8091EE028C
:103400008272FE01E054F847EF30F10508F045C044
:10341000EE53F64D0C94132980919304837011F4AC
:1034200010924101809193048C7F8160809393047A
:103430000E947F05AECE80919304837011F01092AC
:103440004101809193048C7FF1CF882309F4BBCF95
:103450000E94A9089ECE882309F4BBCF0E9496083B
:1034600098CE882309F4BBCF0E94830892CE88238C
:1034700009F4BBCF0E946D088CCE882309F4BBCF22
:103480000E94590886CE882329F00E94210881CE07
:103490008823D9F30E943A087CCE9E01205E3245F3
:1034A00020323105A8F4911123C0CF7181E090E062
:1034B000FC0102C0EE0FFF1FCA95E2F7EF016E2F6D
:1034C00083E090E00E946429CE010E947E0C61CED0
:1034D000992371F180E0CB35FCE7DF07F9F0CC35BB
:1034E0002CE7D207A1F081E0CA353CE7D307B1F061
:1034F000C1308CE7D807D1F0C330ECE7DE0781F0AC
:10350000C115DC47A9F40E94090E0E941F07809193
:103510003B0482FB882780F991E089273DDA39CE88
:103520006FEF7FEF90E080E00E947E290E94E11023
:10353000F801E080F180992309F462C0C7010E947C
:103540009E0BC82F682FC7010E940F0CB7018C2F4C
:103550000E94360A0E94540AD82FC92FB82EF801AB
:10356000D580C680C2949FE0C9228091C302877033
:1035700009F1FD2CDD20F9F08C2F807F803469F07B
:1035800080E28D0F8830B0F08C2F807E803229F45D
:10359000F1E0FD1778F4CC2069F080913B0482FFC4
:1035A00009C082E00E945A0C8091C3028770FF24F8
:1035B000F3948111F12CEC2EE2948FE0E82228E0C4
:1035C000E21609F402C12E1588F133E03E15E8F049
:1035D0008C2F807FCF7091E09E15E0F5803211F046
:1035E000C295C07FBB2009F46AC031E0B31609F46C
:1035F000B0C0DD2009F4BCC0CC2009F47EC040C0BE
:10360000C7010E94DC0BC82FA1CFE4E0EE1609F43D
:10361000C0C0EE2DE850FF0B349708F0DAC10E94CD
:10362000010860E0C8010E94CD0CC2CDF9E0EF16A0
:1036300009F455C186E08E0D8F70823050F78D2FC2
:1036400022EFB2125BC18C2F8F71D11054C10E9436
:10365000700CDFCF882311F0C295C07F8D2FDD2045
:10366000B9F0CC2369F090E29D0F983010F0D111A1
:1036700009C08091EE02C82BC093EE020E94B50DE6
:103680008D2F2DC08091C502C82BC093C502F6CFE7
:103690000E94FB10CC2309F4BCCFD05ED83010F0D0
:1036A000B11004C08C2F0E94650B06C0C09580919C
:1036B000C502C823C093C5020E94B50DAACF809150
:1036C0003B0482FD16C0DD2069F0CC2339F08091E7
:1036D000EE02C82BC093EE020E94B50D80E00E945E
:1036E000211197CF80E00E94FB10CC2309F491CFE9
:1036F000D9CFDD20A1F0C11004C08C2F0E94F210A0
:1037000088CF81E0C81285CF9091C4028C2F892385
:10371000C81709F47ECFC92BC093C4027ACFC11059
:1037200078CF8C2F0E94ED109091C4028C2F8923AA
:1037300029F08C2F809589238093C4028091A30265
:103740009C2F982309F465CFC095C823C093A3028A
:1037500060CFDD2029F095E09C1508F45ACFCDCF3D
:10376000E4E0EC1508F455CF8C2F0E94ED1051CFFA
:10377000CC20D1F3D93349F4FFEF27EE33E0F150F9
:1037800020403040E1F700C000008D2F0E94FB1068
:1037900040CF8C2F86958695837069F0813009F033
:1037A00038CF8D2F9C2F9370D11002C080E090E015
:1037B0000E94B1072ECF8D2F9C2F9370D11002C085
:1037C00080E090E00E94D90724CF8C2F837009F00D
:1037D00040C0D1101ECF4D2F429546954770440FE3
:1037E000440F2D2F2F7030E0042E02C0220F331F04
:1037F0000A94E2F790E080E0D4FF09C08FE090E007
:1038000002C0880F991F4A95E2F780959095C6955A
:10381000C695C370C230A1F0C33079F040918103E6
:1038200050918203C13039F0822B932B842395234E
:103830000E947E0CEECE242B352B822B932BF8CFBF
:10384000822B932B2091810330918203822793272F
:10385000EFCF8695DD2011F08C2F8170882309F43D
:10386000D8CE4D2F429546954770440F440F2D2FCB
:103870002F7030E0042E02C0220F331F0A94E2F7AB
:1038800090E080E0D4FF09C08FE090E002C0880F94
:10389000991F4A95E2F780959095C695C695C37095
:1038A000C230A1F0C33079F040918303509184037A
:1038B000C13039F0822B932B842395230E94450C31
:1038C000A8CE242B352B822B932BF8CF822B932B36
:1038D000209183033091840382279327EFCFCF7009
:1038E000DD2029F08C2F0E94700C8D2F07CF8D2F9B
:1038F0000E94ED108C2F0E944A0C8BCE92EF9B15EC
:1039000070F0E0EFBE16D1F0F1EFBF1691F0DD20C0
:1039100009F44FC0C110B4CE8C2F8F7198CE23EF15
:10392000B21601F134EFB312F2CF90913B0492FD45
:1039300027C08C2F8F71DD20F1F289CEDD2069F058
:1039400084E08C1508F465CECF7181E090E002C070
:10395000880F991FCA95E2F7BBCF95E09C1508F434
:1039600058CEF2CF90E080E0DD2009F4A7CFCF71F0
:1039700081E090E002C0880F991FCA95E2F79ECFC0
:10398000DD2061F08C2F8F7192FF61CEE8E08E9F79
:103990009001112423602093C30259CE81E00E943C
:1039A0005A0CF1E0FC1508F034CE82E00E945A0C6B
:1039B00030CECC2059F0893309F0E7CE2FEF37EE27
:1039C00083E0215030408040E1F7DDCE8C2F8F71B5
:1039D00092CFFF2009F425CE8091C30280FD21CE35
:1039E000F80115828695869586950E94700CC8010F
:1039F00071DB8091C3028695869586950E944A0C5C
:103A000010CEFE01E851FC47E730F10508F4ABCBDE
:103A1000C6312CE7D20709F0F1CC8091A2028111C6
:103A2000BCCC89E20E94500712C08091EE02C631E0
:103A3000FCE7DF0709F0B3CC8A7A91E009F490E063
:103A40009093A2028111A7CC89E20E947D070E9477
:103A5000B50D9FCBCF93DF938091C202807F09F099
:103A60004CC08091C102882309F447C0E0918F04C3
:103A700050915604C091BD02D091BC026091BE022B
:103A80007091BF0247E05E17C1F18E2F90E0E49F76
:103A9000F0011124E95AFB4F2481222389F1489F28
:103AA000F001499FF00D1124DF01A95ABB4F119677
:103AB0002C9111972C1324C02C912D1321C01596F5
:103AC0002C91159721111CC012962D913C91261B0B
:103AD000370B283C3105A0F48091C2028F708061C1
:103AE0008093C202E35AFB4F80818F708061808394
:103AF0008CEB92E0EFDA0E94940BDF91CF91089566
:103B0000FC013196E770BFCFADE0B0E0EAE8FDE13F
:103B10000C94B4288C0186E0F801DE01189601901F
:103B20000D928A95E1F7F8018481E5809CEBA92E3E
:103B300092E0B92E9091C002911126C0882309F11C
:103B4000EE20E9F0C8010E94830CF82E8823B9F01A
:103B500087E0F801D50101900D928A95E1F78091F7
:103B6000C002813031F48091BC029091BD020E946C
:103B7000D00B70DF8F2D2D96ECE00C94D028C8016F
:103B8000A9DAFF24F394F6CFD080C180828093809D
:103B9000F090C1022091BE023091BF02A401421BED
:103BA000530BFF2009F4B6C0483C510508F08EC005
:103BB000882301F39091BD028091C202282F207FBB
:103BC00009F054C0C91213C09091BC02D9120FC0A1
:103BD000E11046C08F7080618093C2028CEB92E04E
:103BE00079DA8091C202F8018683F12CC3CFE1100B
:103BF00037C06C2D8D2D0E9494056C2D8D2D0E944B
:103C00009405E82E8111F1CFD886C98688859985DB
:103C10000E94D00B292F22952F70903458F49F705A
:103C2000223080F0992391F0F8019681907F71F411
:103C3000FE2CA0CF2A5F2F70223060F0C8014ADA34
:103C4000EF2CF6CF992311F0882391F3805E883012
:103C500078F3F4CF803F60F3815F833048F3EECF99
:103C60008091C20281608093C202BFCFC91207C097
:103C70009091BC02D91203C0EE2009F46CC0C801B7
:103C80000E94830C882309F47ACFEE2009F477CFC1
:103C90008091C202803280F02091BC023091BD023E
:103CA0003A8329839C828B829091C0029D831E82DD
:103CB0008F83CE0101960EDA87E0F801ACEBB2E01B
:103CC00001900D928A95E1F7C5DE5BCF9091C2021B
:103CD000292F207F49F48CEB92E0FCD987E0F50195
:103CE00011928A95E9F781CF882309F443CF809117
:103CF000BD028C11C4CF8091BC02D812C0CFE1109C
:103D0000BECF9683C801E6D987E0F50111928A9566
:103D1000E9F730CF483C5105B8F7882309F431CF93
:103D2000FE2CEE2009F42BCF8091BD028C111FC018
:103D30008091BC02D8121BC08091C20280FD0EC0CF
:103D4000982F907F59F08683903F31F0982F907F85
:103D5000905F8F70892B8683C801BCD987E0F801FA
:103D6000ACEBB2E001900D928A95E1F703CFC80168
:103D70000E94830C8111A0CF8091C2028160809348
:103D8000C202C801A7D9F6CEABE1B0E0EAECFEE191
:103D90000C94BD284E8B5F8B688F798F8A8F9B8F99
:103DA00091111092C5021D8A86E0FE017696DE0111
:103DB0001F9601900D928A95E1F78B89882351F027
:103DC00061E0CE010F960E94CD0C61E0CE010F960E
:103DD0000E94CD0C87E0FE013F96DE01189601900F
:103DE0000D928A95E1F7CE0108968EDE81110CC006
:103DF00087E0FE013896DE01119601900D928A95BA
:103E0000E1F74C8541110BC017E080918F04909130
:103E10005604891332C06B96E3E00C94D9282091A4
:103E2000560430E0C90101968770992750918F049C
:103E300058171906A1F04D8397E0929FD001939FE8
:103E4000B00D1124A95ABB4FFE01319601900D927D
:103E50009A95E1F7809356040E94940BD5CF0E9467
:103E6000090E1092560410928F0487E0ECEBF2E0FA
:103E7000DF011D928A95E9F7C7CF819FC001112408
:103E8000895A9B4F41DE882331F280918F0490E064
:103E900001968770992780938F04B7CFA0E1B0E097
:103EA000E4E5FFE10C94B4281A821982FE013396EE
:103EB00086E0DF011D928A95E9F781E8E82E81E02E
:103EC000F82E10E000E0CC24C394D12C2BE8A22ED5
:103ED00021E0B22EF70181917F018F3F09F445C0A7
:103EE000F894E82FE295EF70F0E021A18F70A60121
:103EF00002C0440F551F8A95E2F7CA01922F982BF2
:103F000091A392A18095892382A3789400C0E5E8CB
:103F1000F1E031E0912C21912F3F09F4A7C0A22FAD
:103F2000A295AF70B0E090968C9190E02F7002C097
:103F3000959587952A95E2F780FD98C0832F982A5A
:103F4000330FAE16BF0639F7F701319780818F3FE7
:103F500011F00E94F90850EA5A95F1F7E1E0F0E01B
:103F6000EC0FFD1FE00FF11F90820F5F1F4F043019
:103F7000110509F0AFCF48E050E0BE016F5F7F4F01
:103F80008AE293E00E9422299C01892B49F088E073
:103F9000FE013196AAE2B3E001900D928A95E1F715
:103FA0000091330310E00C5C1C4F232B09F460C01C
:103FB00081E08093F3021FD89093F2028093F10284
:103FC000F12CE0903204EE2009F4B0C01A86198674
:103FD0001C861B86809125038A3008F06FC046E45A
:103FE00055E1BE01675F7F4FC8010E940712882319
:103FF00009F48BC04EE856E1BE01675F7F4FC801F0
:104000000E940712882309F480C043EE54E1BE01E8
:10401000675F7F4FC8010E940712882309F475C0AB
:1040200045E656E1BE01675F7F4FC8010E94071257
:10403000882309F46AC0109225038091320390E02E
:1040400044E050E0BE01675F7F4F8C5C9C4F0E9454
:10405000222921E02093FA02892B09F048C0E12CA3
:104060008E2D8F296096ECE00C94D02880E067CFED
:10407000F090F302FF2009F4A3CFC090F102D0909A
:10408000F2020E94FB178C199D09059708F498CF3E
:1040900044E050E06AE273E0C8010E942229892BC3
:1040A00059F084E0EAE2F3E0D80101900D928A959C
:1040B000E1F71092F30285CFF12CFBCFC090F40210
:1040C000D090F5020E94FB178C199D09843F914006
:1040D00008F085CF8091FA02882309F2FE01399613
:1040E00084E0DF011D928A95E9F71092FA02E091CF
:1040F0003203F0E0EC5CFC4F89859A85AB85BC858A
:1041000080839183A283B383ABCF809125038F3FBC
:1041100031F08F5F809325038A3008F48ECF0E94A0
:10412000FB179093F5028093F402D4CFC090320332
:10413000D12CF601EC5CFC4F6F01F801808191817C
:10414000A281B3818093080390930903A0930A038B
:10415000B0930B0388E093E00E94B20580930703BD
:1041600080910C0390910D03A0910E03B0910F0369
:10417000F60180839183A283B38380901003909093
:104180001103A0901203B09013038091F602909156
:10419000F702A091F802B091F90288169906AA06D2
:1041A000BB06B1F08092F6029092F702A092F8025C
:1041B000B092F9020E943007861A970AA80AB90A33
:1041C0008092260390922703A0922803B09229039D
:1041D00088E0E4E1F3E0A3E9B4E001900D928A9570
:1041E000E1F73ECFA6E0B0E0E7EFF0E2C5C70E94FE
:1041F000FB178C018091EF029091F00280179107DC
:1042000079F019821A820E94FB17682F49815A811E
:10421000792F80E090E0B8DD1093F0020093EF0278
:104220002696E4E0C5C71F921FB61F9211248F93F4
:104230009F93AF93BF9380913C04811113C08091F1
:104240003D0490913E04A0913F04B09140044196FA
:10425000A11DB11D80933D0490933E04A0933F04A3
:10426000B0934004BF91AF919F918F911F901FBE5B
:104270001F901895CDB7DEB72A970FB6F894DEBF1A
:104280000FBECDBF85B7806885BF85B7806885BF05
:1042900084B7877F84BF0FB6F894A895809160009B
:1042A000886180936000109260000FBE80E890E00B
:1042B0000FB6F89480936100909361000FBE81E087
:1042C0008093450187EF98E090937902809378027C
:1042D0000E94C9050E946A068091E2008460809372
:1042E000E200789480914C048823A1F01091E900B9
:1042F0001F709091EC00892F817090FD80E8182B41
:104300001092E9008091E80083FD0E94270E1F7043
:104310001093E90082E084BD93E095BD9AEF97BDCC
:1043200080936E00109226031092270310922803A8
:10433000109229038091D80080618093D8002AE1EF
:104340002A95F1F700C08091D900182F117080FDD7
:1043500004C00E94C90510924C04109332041093BB
:10436000330411118CC094E09093330384E0891BD3
:104370008093320384E90E94F90886E60E94F908D6
:1043800087E90E94F90886EC0E94F90805E811E027
:10439000D8018D918D018F3F11F00E94F908B1E095
:1043A0000B381B07A9F788E0E4E3F3E0DF01282FCF
:1043B0001D922A95E9F7EAE2F3E0DF011D928A9562
:1043C000E9F790E080E06CD7833E9E4F79F163EE91
:1043D0007EEF90E080E092D760E082E090E074D7DA
:1043E00081E090E0909382038093810361E083E019
:1043F00090E06AD760E074E184E090E07FD70E94AB
:10440000B11440E050E0BA018FE090E06FD740E097
:1044100050E0BA0183E190E069D748E050E067E1FD
:1044200070E083E994E041D710929B0482E090E031
:104430002FD78093440384E090E032D790933B04DD
:1044400080933A042BDDEFEFF6E721E0E150F040F6
:104450002040E1F700C0000021DD80913304E4E05A
:104460008111E0E0F0E0EC5CFC4F808181FF0FC047
:104470006FEF7FEF90E080E041D70E941F0706D5E5
:1044800080913304882309F46ECF90E06DCF83E0F0
:1044900090E0FED690E00E947E0C0E941F0881E012
:1044A00080939B0448E050E067E170E083E994E08A
:1044B000DFD610929B04809193048C7F11F40E94AC
:1044C000B114809132048111DEC082E080937803C0
:1044D00080E880939C047AD36BE070E08FED92E0EB
:1044E0000E944012882309F443C08091780365E05C
:1044F00070E081FDCAC08AED92E00E9440128823DC
:10450000B9F16DE070E088EC92E00E9440128823DF
:1045100079F10E9430076F83788789879A87DC0159
:10452000CB01805A9541AF4FBF4F80938A03909340
:104530008B03A0938C03B0938D03EFE9F4E080E04C
:1045400092E0DF019C011D9221503040E1F7F09391
:10455000A606E093A5068FEF9FEF90939E048093AD
:104560009D0481E080938F0380938E0310927903E2
:1045700080913204811101C08CD488E291E0909343
:1045800037048093360422242394312C80914C04E8
:1045900010E400E1F2E1FF2E853009F4D0C07EDCAA
:1045A00075E4A72E73E0B72EE4E38E2EE3E09E2E93
:1045B000D401F50191918D9123E0ED34F20709F4D6
:1045C000C8C09817B9F3409032046CE3E62E63E05C
:1045D000F62ED12CD401CD904D01F50161905F01F3
:1045E0006C1409F444C06C2410E000E07724739448
:1045F000872D862199F1572C5C20442009F1D701A1
:104600008C9190E09101002E02C0220F331F0A947A
:10461000E2F782239323892B99F40983DA820E949B
:10462000FB179C838B83B1E0BD8391E0511001C0E7
:1046300090E09E8349815A816B817C818D81A4DBCE
:1046400051100CC0C101002E01C0880F0A94EAF776
:10465000982F9095F701808189238083770C0F5FD5
:104660001F4F0630110521F6F5013197C082D39412
:10467000FFEFEF1AFF0A28E0D212ACCF0E94120916
:10468000DD24D3946AC080E021CF85ED92E035CF60
:1046900080914C04843039F10E949A120E944D128C
:1046A00010923C0448E150E00FB6F894A89540936E
:1046B00060000FBE1093600083B7817F846083BF6A
:1046C00083B7816083BF7894889583B78E7F83BFDB
:1046D0000FB6F894A895809160008861809360007F
:1046E000109260000FBEDADBE4E3F3E0ACE3B3E08A
:1046F00080E021912D9391E0211101C090E0892B60
:1047000053E0EC33F507A9F78823C9F080914B04F7
:104710008823A9F009BDF9BC09B400FEFDCF809142
:10472000D8008F7D8093D8008091E00082608093D4
:10473000E0008091E00081FDFCCF0E94090E809195
:104740004C04853009F4A4CF0E94090E0E94010890
:1047500026CF981338CF46DDD12C0E949A12809133
:104760008F03882309F49BC000917A0310917B0387
:104770000E94FB17801B910BC29708F466C00E9431
:10478000FB1790937B0380937A038FE994E09093D7
:10479000A6068093A50680913204882309F4E7C019
:1047A0008BE093E00E94740D8091830390918403C9
:1047B0000E94A90C823009F489C008F07FC08111E1
:1047C00082C083E093E00E94B20D80915703805D28
:1047D0000E94F50C89E193E00E94740D80915603CC
:1047E000805D0E94F50C85E193E00E94740D80913C
:1047F0005403909155032091320130913301821777
:10480000930709F069C020915303203209F064C076
:10481000EDE4F3E08F0181918032E1F3F801019042
:104820000020E9F79F012150310979010E151F057C
:1048300008F497C083E193E00E94740D80913401E5
:104840000E94F50C81E00E94810D80919D04909161
:104850009E04892B09F090C080918E038823F9F083
:104860000E9430076F83788789879A8780918A03AF
:1048700090918B03A0918C03B0918D032F8138858B
:1048800049855A85281B390B4A0B5B0BDA01C90194
:104890008F3F9F4FAF4FBF4710F40E944D12D11072
:1048A0000E9467120E94010890917C03891709F405
:1048B0006DCE80937C030E94300768CE833049F030
:1048C0008AEE92E080CF8DEF92E07DCF87EF92E08D
:1048D0007ACF80EF92E077CF9093330180933201CB
:1048E00020E2209353039C0150E040E02F8338875F
:1048F00049875A871092520358E4E52E53E0F52E6B
:104900000DE413E06F81788589859A852AE030E08F
:1049100040E050E066D4605D603321F433E00D3454
:10492000130749F08F819885A985BA85892B8A2B31
:104930008B2B09F460E2D80114966C936F81788513
:1049400089859A852AE030E040E050E04AD42F8300
:10495000388749875A8701501109E016F10691F608
:1049600057CFD8018D918D010E94F50C5FCF8BE15F
:1049700093E00E94740D69CF80918F03882309F41E
:104980006BCF80917903811167CF0E9467122091CC
:104990009D0430919E042115310509F45DCF80E01E
:1049A000882E912C3101082E02C0660C771C0A94C7
:1049B000E2F7A30142235323452B11F48F5FF0CF7D
:1049C0009091780390FF94C0880F880F880F809390
:1049D000370110923A01895F8093380183E0809318
:1049E0003B0124E630E047E050E065E371E088E712
:1049F00023D1892B09F030CF95E0880C991C9A952A
:104A0000E1F78091780380FF85C080E2E8E5F3E07C
:104A100011928A95E9F72FE831E038872F838BE8E8
:104A2000A82E81E0B82E07E0AF81B8852D91B88718
:104A3000AF83F50141905F01480C592C511CA20134
:104A400041565B4F2A01E22FF0E0E85AFC4F90E01C
:104A500080E0E02EE81A122D082E01C0110F0A94F2
:104A6000EAF7A20170E0DA016D91AD0161232E2D0C
:104A7000271B2770F22E022E000C330BB62F01C01D
:104A8000BB0FFA94EAF7FB2E319521953109277077
:104A9000332701C066952A95EAF7F62A6081F62A3F
:104AA000F0827F5F7830F9F6019631968830910573
:104AB00081F6EF81F885E359F14009F0B5CF04E6BE
:104AC00010E020E230E048E553E060E488E73CD1C4
:104AD000892B09F0C1CE6094709480919D049091CF
:104AE0009E046822792270929E0460929D04B4CE46
:104AF0008295880F807680933701940136952795AB
:104B00003695279520933A01815E80933801209352
:104B10003B0167CFA40141565B4F04E610E020E261
:104B200030E0D3CFFF920F931F93CF93DF93182FD3
:104B3000EB011092BC0084EA8093BC000E94FB173A
:104B4000082FF92E8091BC0087FF28C08091B90002
:104B5000887F883029F08091B900887F803199F56D
:104B60001093BB0084E88093BC000E94FB17182FB1
:104B7000092F8091BC0087FF1EC02091B900287FBB
:104B800090E080E0283199F081E090E0203411F449
:104B900090E080E091958195910909C0802F9F2D2B
:104BA0000E940718C817D90768F68EEF9FEFCDB798
:104BB000DEB7E5E0FCC2812F902F0E940718C817CE
:104BC000D907B8F6F2CF8FEF9FEFF1CF1092B9006F
:104BD0008CE08093B80008950F931F93CF93DF93D9
:104BE000EB018093BB0084E88093BC000E94FB171C
:104BF000182F092F8091BC0087FF11C02091B900A8
:104C0000287F81E090E0283211F490E080E09195D7
:104C100081959109DF91CF911F910F910895CF3F19
:104C2000DC0741F3812F902F0E940718C817D9077E
:104C300008F78EEF9FEFEECFB0E0A0E0E1E2F6E202
:104C400092C2782E5B016A0189010E94FB177C01E8
:104C500088248394912C0431110558F085E0882E26
:104C6000912C0F3F100729F0C80164E170E062D277
:104C70004B01B401872D56DFEC0197FF09C00F3FB0
:104C80001007B9F3C7010E9407180817190788F71A
:104C90007501CA0CDB1CEC14FD0411F0D7FF08C031
:104CA00084E98093BC00CE01CDB7DEB7EDE077C2DA
:104CB000B801F70181917F018FDFEC01ECCFB0E00B
:104CC000A0E0E4E6F6E24FC2782E5B016A018901BA
:104CD0000E94FB177C0188248394912C04311105D8
:104CE00058F085E0882E912C0F3F100729F0C8015D
:104CF00064E170E01FD24B01B401872D13DFEC019A
:104D000097FF09C00F3F1007B9F3C7010E940718AA
:104D10000817190788F77501CA0CDB1CEC14FD0491
:104D200011F0D7FF08C084E98093BC00CE01CDB755
:104D3000DEB7EDE034C2F7018491B8014DDFEC013C
:104D4000FFEFEF1AFF0AEACFB0E0A0E0E9EAF6E2EF
:104D500009C2682E962E5A01690178010E94FB173C
:104D6000782E892E01E010E084E1E816F10458F075
:104D700005E010E0EFEFEE16FE0629F0C70164E152
:104D800070E0D8D18B01B801862DCCDEEC0197FF05
:104D90001FC0FFEFEF16FF06B1F3872D982D0E947D
:104DA0000718E816F90678F784E98093BC00CE016D
:104DB000CDB7DEB7EEE0F2C1B701F80181918F0106
:104DC0000BDFEC01C016D10679F3D7FFF5CFECCF9E
:104DD000B701892D01DFEC018501CA0CDB1CF2CF84
:104DE0008EE14A9B02C08150E1F74A9BFECF0895B5
:104DF0005A9880E28A95F1F75A9A0895FC013BE0AF
:104E00003A95F1F798E020E080E031E040E14A9502
:104E1000F1F7880F4A9B02C08160232742E04A9540
:104E2000F1F7000040E14A95F1F7915079F790E1F0
:104E30009A95F1F799B132E03A95F1F7000040E127
:104E40004A95F1F792FB992790F992272081920FCA
:104E500090830895A1E0B0E0EFE2F7E28BC1198200
:104E60008C017C01E60EF11C0E151F0539F481E062
:104E70009981911180E02196E6E098C1B1DFCE01E1
:104E80000196BCDFF80181938F01EECF529A5A9AB6
:104E9000089552985A9AEA9AE9E6F0E080818F7C68
:104EA000808308956150770B91E001C0990F6A9556
:104EB000EAF720E031E0911108C0222391F05A9ADC
:104EC00080E28A95F1F75A980895492F482339F0DE
:104ED0005A9A232740E24A95F1F79695ECCF5A98D3
:104EE000F9CF5A98EDCFFF920F931F93CF93DF9393
:104EF000EC018C01060F111DC017D10721F4CDB7AD
:104F0000DEB7E5E054C1F99073DF68E08F2DCADFAA
:104F1000F3CF1F920F920FB60F9211240F931F938E
:104F20002F933F934F935F936F937F938F939F93B1
:104F3000AF93BF93EF93FF93CF93DF930F92CDB7D0
:104F4000DEB719824DDFCE01019658DF282F082FDA
:104F5000069506950695982F92959570802F8570E9
:104F6000980F892F837096959695890F8227877061
:104F70009981892B09F058C0063008F055C080E1AE
:104F80008A95F1F75A9A529A82E08A95F1F700C011
:104F90005A9888E0089F80011124D801A050BF4F83
:104FA0001696ED91FC9117973097A9F060917F01CB
:104FB0007091800114962D913C911597260F371F03
:104FC00011968D919C911297680F791F13964C91B1
:104FD00013978C910995F801E050FF4F6381662388
:104FE00049F020917F013091800184819581820F69
:104FF000931F79DFFDDE80E18A95F1F75A98529888
:105000005A9A80E18A95F1F7F801E050FF4F6081EC
:10501000662349F020917F01309180018181928146
:10502000820F931F17DFDCDE0F90DF91CF91FF918E
:10503000EF91BF91AF919F918F917F916F915F9110
:105040004F913F912F911F910F910F900FBE0F9095
:105050001F9018950F931F93CF93DF93EC01069742
:105060000CF049C0F894529A5A9885E08A95F1F765
:1050700000008C2F869585709C2F9570890F982F36
:1050800093708695869523E0CC0FDD1F2A95E1F776
:10509000890F8E01082BACDE00C068E0802F02DF94
:1050A00080E18A95F1F752985A9A4A9B1DC087E091
:1050B00090E04A991BC0FE01E050FF4F63816623D8
:1050C000F1F020917F013091800184819581820FE0
:1050D000931FC0DE811113C0529A5A9A7894DF91BF
:1050E000CF911F910F91089500C0DFCF019729F450
:1050F000529A5A9A789480E0F2CF00C0DACF70DEEC
:1051000080E28A95F1F75A98529A80E18A95F1F7F0
:10511000C050DF4F6881662349F020917F013091B4
:10512000800189819A81820F931FDDDE61DE789490
:1051300081E0D5CFAA1BBB1B51E107C0AA1FBB1F33
:10514000A617B70710F0A61BB70B881F991F5A9513
:10515000A9F780959095BC01CD0108952F923F92BB
:105160004F925F926F927F928F929F92AF92BF9277
:10517000CF92DF92EF92FF920F931F93CF93DF9323
:10518000CDB7DEB7CA1BDB0B0FB6F894DEBF0FBE80
:10519000CDBF09942A88398848885F846E847D84CD
:1051A0008C849B84AA84B984C884DF80EE80FD80CF
:1051B0000C811B81AA81B981CE0FD11D0FB6F89445
:1051C000DEBF0FBECDBFED010895991B79E004C08D
:1051D000991F961708F0961B881F7A95C9F7809536
:1051E0000895A1E21A2EAA1BBB1BFD010DC0AA1F28
:1051F000BB1FEE1FFF1FA217B307E407F50720F040
:10520000A21BB30BE40BF50B661F771F881F991FBA
:105210001A9469F760957095809590959B01AC0103
:10522000BD01CF010895EE0FFF1F0590F491E02D11
:105230000994FB01DC0102C005900D9241505040E1
:10524000D8F70895FB01DC0104C08D91019080190D
:1052500021F441505040C8F7881B990B0895FB0179
:10526000DC0102C001900D9241505040D8F70895E2
:10527000DC01CB01FC01F999FECF06C0F2BDE1BD16
:10528000F89A319600B40D9241505040B8F7089505
:10529000F999FECF92BD81BDF89A992780B50895FE
:1052A000A8E1B0E042E050E0E5CFDC01A40FB51F7B
:1052B0004150504040F0CB01840F951F2E9105D0F6
:1052C00041505040D8F70895262FF999FECF92BD4E
:1052D00081BDF89A019700B4021639F01FBA20BDBB
:1052E0000FB6F894FA9AF99A0FBE08950396272FED
:1052F000ECDFEADF252FE9DF242FE7CF0196272F08
:10530000E4DFE2CFF894FFCF060F2E0FCF102E0F61
:10531000CF10610F820FCF1081108E10E118E518A9
:10532000C418DD18E918ED18F1185219BD195A19E9
:10533000241928195E192C1962196E193819B61911
:105340003C197219401976199E1944197A19A51930
:105350004A19801988193019661934196A194E19B1
:1053600084199419AE19B4191E195619C419DD19E6
:10537000E019251AE6192B1AEC19311AF219371A05
:10538000F8193D1A0C1A1B1ADD19E019251AE6192D
:105390002B1AEC19311AF219371AF8193D1A431A57
:0253A000481AA9
:1053A20000000001000000000000000401000000F5
:1053B20004050000000000000409000000000000D5
:1053C200090D0000000000004D07CB11C6111E0799
:1053D200C111FF00200021007F220003FFFF00FF18
:1053E20000030000010000FF30E200E900EA00B51E
:1053F20000B600B700CD008301CC008A019201946F
:10540200012102230224022502260227022A02B3D4
:1054120000B4006F0070009F01CB019F02A0020741
:1054220003946697C6F4F5F6F7313300081018189E
:10543200100800181712110A09191613100B081A6E
:1054420015140F0C07FFFFFF0E0D0633322D2C250E
:105452002434312E2B262335302F2A2722FFFFFF1B
:105462002928215510320D10141026323055345F80
:105472003F552755155504440244134425503A3CE0
:10548200373223320D3200210321142125102A1034
:105492001810070007001800298B10AE0DD014D089
:1054A20026AE308B34813F8B278B158B049C029C5C
:1054B200139C25903AA437AE23AE0DAE00BF03BFB6
:1054C20014BF25D02AD018D007E007E018E029023F
:1054D200020202020201040404040404010104049D
:1054E200040404040404040101010202020202028F
:1054F2000104040404040401010404040404040473
:105502000404010101FF000080000000FF00FF0011
:08551200FF00FFFFFF0502008E
:00000001FF
